{
  "_format": "hh-sol-artifact-1",
  "contractName": "Lottery",
  "sourceName": "contracts/Lottery.sol",
  "abi": [
    {
      "inputs": [],
      "stateMutability": "nonpayable",
      "type": "constructor"
    },
    {
      "inputs": [],
      "name": "_currency",
      "outputs": [
        {
          "internalType": "contract IERC20Extented",
          "name": "",
          "type": "address"
        }
      ],
      "stateMutability": "view",
      "type": "function"
    },
    {
      "inputs": [],
      "name": "balance",
      "outputs": [
        {
          "internalType": "uint256",
          "name": "",
          "type": "uint256"
        }
      ],
      "stateMutability": "view",
      "type": "function"
    },
    {
      "inputs": [],
      "name": "balanceOf",
      "outputs": [
        {
          "internalType": "uint256",
          "name": "",
          "type": "uint256"
        }
      ],
      "stateMutability": "view",
      "type": "function"
    },
    {
      "inputs": [
        {
          "internalType": "uint8",
          "name": "number",
          "type": "uint8"
        }
      ],
      "name": "bet",
      "outputs": [],
      "stateMutability": "nonpayable",
      "type": "function"
    },
    {
      "inputs": [],
      "name": "createGame",
      "outputs": [],
      "stateMutability": "nonpayable",
      "type": "function"
    },
    {
      "inputs": [],
      "name": "currentTime",
      "outputs": [
        {
          "internalType": "uint256",
          "name": "",
          "type": "uint256"
        }
      ],
      "stateMutability": "view",
      "type": "function"
    },
    {
      "inputs": [
        {
          "internalType": "uint256",
          "name": "",
          "type": "uint256"
        }
      ],
      "name": "games",
      "outputs": [
        {
          "internalType": "uint256",
          "name": "id",
          "type": "uint256"
        },
        {
          "internalType": "uint8",
          "name": "winNumber",
          "type": "uint8"
        },
        {
          "internalType": "enum Lottery.GameStatus",
          "name": "status",
          "type": "uint8"
        },
        {
          "internalType": "uint256",
          "name": "startTime",
          "type": "uint256"
        },
        {
          "internalType": "uint256",
          "name": "endTime",
          "type": "uint256"
        }
      ],
      "stateMutability": "view",
      "type": "function"
    },
    {
      "inputs": [],
      "name": "getCurrencyName",
      "outputs": [
        {
          "internalType": "string",
          "name": "",
          "type": "string"
        }
      ],
      "stateMutability": "view",
      "type": "function"
    },
    {
      "inputs": [],
      "name": "nextGameId",
      "outputs": [
        {
          "internalType": "uint256",
          "name": "",
          "type": "uint256"
        }
      ],
      "stateMutability": "view",
      "type": "function"
    },
    {
      "inputs": [
        {
          "internalType": "uint256",
          "name": "gameId",
          "type": "uint256"
        }
      ],
      "name": "numberOfPlayerInGame",
      "outputs": [
        {
          "internalType": "uint256",
          "name": "",
          "type": "uint256"
        }
      ],
      "stateMutability": "view",
      "type": "function"
    },
    {
      "inputs": [
        {
          "internalType": "uint256",
          "name": "gameId",
          "type": "uint256"
        },
        {
          "internalType": "uint256",
          "name": "playerId",
          "type": "uint256"
        }
      ],
      "name": "playerOfGame",
      "outputs": [
        {
          "internalType": "address",
          "name": "",
          "type": "address"
        },
        {
          "internalType": "uint8",
          "name": "",
          "type": "uint8"
        }
      ],
      "stateMutability": "view",
      "type": "function"
    },
    {
      "inputs": [
        {
          "internalType": "address",
          "name": "currency",
          "type": "address"
        }
      ],
      "name": "setGameCurrency",
      "outputs": [],
      "stateMutability": "nonpayable",
      "type": "function"
    },
    {
      "inputs": [],
      "name": "stopGame",
      "outputs": [],
      "stateMutability": "nonpayable",
      "type": "function"
    },
    {
      "inputs": [
        {
          "internalType": "uint256",
          "name": "gameId",
          "type": "uint256"
        }
      ],
      "name": "winnersOfGame",
      "outputs": [
        {
          "internalType": "address[]",
          "name": "",
          "type": "address[]"
        }
      ],
      "stateMutability": "view",
      "type": "function"
    }
  ],
  "bytecode": "0x608060405260646000806101000a81548160ff021916908360ff1602179055506001600060016101000a81548160ff021916908360ff1602179055506063600060026101000a81548160ff021916908360ff16021790555060008060036101000a81548160ff021916908360ff1602179055506001600060046101000a81548160ff021916908360ff160217905550600a600060056101000a81548160ff021916908360ff1602179055503480156100b657600080fd5b5033600060066101000a81548173ffffffffffffffffffffffffffffffffffffffff021916908373ffffffffffffffffffffffffffffffffffffffff16021790555061239b806101076000396000f3fe608060405234801561001057600080fd5b50600436106100a95760003560e01c806383bd72ba1161007157806383bd72ba14610142578063b135bbb01461014c578063b69ef8a81461016a578063d064d78414610188578063d0821b0e146101a6578063d18e81b3146101c2576100a9565b8063117a5b90146100ae5780634325dea0146100e05780635df37ca5146100fe578063722713f71461011a5780637255d72914610138575b600080fd5b6100c860048036038101906100c39190611533565b6101e0565b6040516100d793929190611602565b60405180910390f35b6100e8610234565b6040516100f591906116b8565b60405180910390f35b61011860048036038101906101139190611711565b61025a565b005b6101226103fe565b60405161012f919061173e565b60405180910390f35b610140610408565b005b61014a61068e565b005b610154610872565b604051610161919061173e565b60405180910390f35b610172610878565b60405161017f919061173e565b60405180910390f35b61019061087e565b60405161019d91906117f2565b60405180910390f35b6101c060048036038101906101bb9190611840565b61092a565b005b6101ca610e34565b6040516101d7919061173e565b60405180910390f35b600281815481106101f057600080fd5b90600052602060002090600402016000915090508060000154908060030160009054906101000a900460ff16908060030160019054906101000a900460ff16905083565b600160009054906101000a900473ffffffffffffffffffffffffffffffffffffffff1681565b600060069054906101000a900473ffffffffffffffffffffffffffffffffffffffff1673ffffffffffffffffffffffffffffffffffffffff163373ffffffffffffffffffffffffffffffffffffffff16146102ea576040517f08c379a00000000000000000000000000000000000000000000000000000000081526004016102e1906118b9565b60405180910390fd5b80600160006101000a81548173ffffffffffffffffffffffffffffffffffffffff021916908373ffffffffffffffffffffffffffffffffffffffff160217905550600160009054906101000a900473ffffffffffffffffffffffffffffffffffffffff1673ffffffffffffffffffffffffffffffffffffffff1663095ea7b3307fffffffffffffffffffffffffffffffffffffffffffffffffffffffffffffffff6040518363ffffffff1660e01b81526004016103a8929190611923565b602060405180830381600087803b1580156103c257600080fd5b505af11580156103d6573d6000803e3d6000fd5b505050506040513d601f19601f820116820180604052508101906103fa9190611984565b5050565b6000600454905090565b600060069054906101000a900473ffffffffffffffffffffffffffffffffffffffff1673ffffffffffffffffffffffffffffffffffffffff163373ffffffffffffffffffffffffffffffffffffffff1614610498576040517f08c379a000000000000000000000000000000000000000000000000000000000815260040161048f906118b9565b60405180910390fd5b60008060035414905060008060035411801561051757506001808111156104c2576104c161158b565b5b600260016003546104d391906119e0565b815481106104e4576104e3611a14565b5b906000526020600020906004020160030160019054906101000a900460ff1660018111156105155761051461158b565b5b145b905081806105225750805b610561576040517f08c379a000000000000000000000000000000000000000000000000000000000815260040161055890611a8f565b60405180910390fd5b600073ffffffffffffffffffffffffffffffffffffffff16600160009054906101000a900473ffffffffffffffffffffffffffffffffffffffff1673ffffffffffffffffffffffffffffffffffffffff1614156105f3576040517f08c379a00000000000000000000000000000000000000000000000000000000081526004016105ea90611b21565b60405180910390fd5b600260018160018154018082558091505003906000526020600020905050600060026003548154811061062957610628611a14565b5b9060005260206000209060040201905060008160030160016101000a81548160ff021916908360018111156106615761066061158b565b5b021790555060035481600001819055506003600081548092919061068490611b41565b9190505550505050565b600060069054906101000a900473ffffffffffffffffffffffffffffffffffffffff1673ffffffffffffffffffffffffffffffffffffffff163373ffffffffffffffffffffffffffffffffffffffff161461071e576040517f08c379a0000000000000000000000000000000000000000000000000000000008152600401610715906118b9565b60405180910390fd5b6000806003541180156107955750600060018111156107405761073f61158b565b5b6002600160035461075191906119e0565b8154811061076257610761611a14565b5b906000526020600020906004020160030160019054906101000a900460ff1660018111156107935761079261158b565b5b145b9050806107d7576040517f08c379a00000000000000000000000000000000000000000000000000000000081526004016107ce90611bd6565b60405180910390fd5b6000600260016003546107ea91906119e0565b815481106107fb576107fa611a14565b5b9060005260206000209060040201905060018160030160016101000a81548160ff021916908360018111156108335761083261158b565b5b0217905550610840610e3c565b8160030160006101000a81548160ff021916908360ff16021790555061086581610e57565b61086e81610f78565b5050565b60035481565b60045481565b6060600160009054906101000a900473ffffffffffffffffffffffffffffffffffffffff1673ffffffffffffffffffffffffffffffffffffffff166395d89b416040518163ffffffff1660e01b815260040160006040518083038186803b1580156108e857600080fd5b505afa1580156108fc573d6000803e3d6000fd5b505050506040513d6000823e3d601f19601f820116820180604052508101906109259190611d1c565b905090565b6000806003541180156109a157506000600181111561094c5761094b61158b565b5b6002600160035461095d91906119e0565b8154811061096e5761096d611a14565b5b906000526020600020906004020160030160019054906101000a900460ff16600181111561099f5761099e61158b565b5b145b9050806109e3576040517f08c379a00000000000000000000000000000000000000000000000000000000081526004016109da90611bd6565b60405180910390fd5b600060069054906101000a900473ffffffffffffffffffffffffffffffffffffffff1673ffffffffffffffffffffffffffffffffffffffff163373ffffffffffffffffffffffffffffffffffffffff161415610a74576040517f08c379a0000000000000000000000000000000000000000000000000000000008152600401610a6b90611db1565b60405180910390fd5b600060026001600354610a8791906119e0565b81548110610a9857610a97611a14565b5b90600052602060002090600402019050610ab28133611319565b15610af2576040517f08c379a0000000000000000000000000000000000000000000000000000000008152600401610ae990611e1d565b60405180910390fd5b60008054906101000a900460ff1660ff1681600101805490501115610b4c576040517f08c379a0000000000000000000000000000000000000000000000000000000008152600401610b4390611e89565b60405180910390fd5b6000600160009054906101000a900473ffffffffffffffffffffffffffffffffffffffff1673ffffffffffffffffffffffffffffffffffffffff166370a08231336040518263ffffffff1660e01b8152600401610ba99190611ea9565b60206040518083038186803b158015610bc157600080fd5b505afa158015610bd5573d6000803e3d6000fd5b505050506040513d601f19601f82011682018060405250810190610bf99190611ed9565b90506000610c056113d0565b905080821015610c4a576040517f08c379a0000000000000000000000000000000000000000000000000000000008152600401610c4190611f52565b60405180910390fd5b60008560ff1610158015610c62575060638560ff1611155b610ca1576040517f08c379a0000000000000000000000000000000000000000000000000000000008152600401610c9890611fe4565b60405180910390fd5b600160009054906101000a900473ffffffffffffffffffffffffffffffffffffffff1673ffffffffffffffffffffffffffffffffffffffff166323b872dd3330846040518463ffffffff1660e01b8152600401610d0093929190612004565b602060405180830381600087803b158015610d1a57600080fd5b505af1158015610d2e573d6000803e3d6000fd5b505050506040513d601f19601f82011682018060405250810190610d529190611984565b508060046000828254610d65919061203b565b925050819055508260010160405180604001604052803373ffffffffffffffffffffffffffffffffffffffff1681526020018760ff168152509080600181540180825580915050600190039060005260206000200160009091909190915060008201518160000160006101000a81548173ffffffffffffffffffffffffffffffffffffffff021916908373ffffffffffffffffffffffffffffffffffffffff16021790555060208201518160000160146101000a81548160ff021916908360ff16021790555050505050505050565b600042905090565b6000610e526064426114a790919063ffffffff16565b905090565b600081600101905060005b8180549050811015610f73578260030160009054906101000a900460ff1660ff16828281548110610e9657610e95611a14565b5b9060005260206000200160000160149054906101000a900460ff1660ff161415610f605782600201828281548110610ed157610ed0611a14565b5b9060005260206000200160000160009054906101000a900473ffffffffffffffffffffffffffffffffffffffff169080600181540180825580915050600190039060005260206000200160009091909190916101000a81548173ffffffffffffffffffffffffffffffffffffffff021916908373ffffffffffffffffffffffffffffffffffffffff1602179055505b8080610f6b90611b41565b915050610e62565b505050565b600081600201805480602002602001604051908101604052809291908181526020018280548015610ffe57602002820191906000526020600020905b8160009054906101000a900473ffffffffffffffffffffffffffffffffffffffff1673ffffffffffffffffffffffffffffffffffffffff1681526020019060010190808311610fb4575b5050505050905060008151905060008111156112375760006110506064611042600060059054906101000a900460ff1660ff166004546114bd90919063ffffffff16565b6114d390919063ffffffff16565b905060008160045461106291906119e0565b90506000838261107291906120c0565b9050600160009054906101000a900473ffffffffffffffffffffffffffffffffffffffff1673ffffffffffffffffffffffffffffffffffffffff1663a9059cbb600060069054906101000a900473ffffffffffffffffffffffffffffffffffffffff16856040518363ffffffff1660e01b81526004016110f39291906120f1565b602060405180830381600087803b15801561110d57600080fd5b505af1158015611121573d6000803e3d6000fd5b505050506040513d601f19601f820116820180604052508101906111459190611984565b5060005b8481101561122e57600160009054906101000a900473ffffffffffffffffffffffffffffffffffffffff1673ffffffffffffffffffffffffffffffffffffffff1663a9059cbb8783815181106111a2576111a1611a14565b5b6020026020010151846040518363ffffffff1660e01b81526004016111c89291906120f1565b602060405180830381600087803b1580156111e257600080fd5b505af11580156111f6573d6000803e3d6000fd5b505050506040513d601f19601f8201168201806040525081019061121a9190611984565b50808061122690611b41565b915050611149565b5050505061130c565b600160009054906101000a900473ffffffffffffffffffffffffffffffffffffffff1673ffffffffffffffffffffffffffffffffffffffff1663a9059cbb600060069054906101000a900473ffffffffffffffffffffffffffffffffffffffff166004546040518363ffffffff1660e01b81526004016112b89291906120f1565b602060405180830381600087803b1580156112d257600080fd5b505af11580156112e6573d6000803e3d6000fd5b505050506040513d601f19601f8201168201806040525081019061130a9190611984565b505b6000600481905550505050565b600080600090505b83600101805490508110156113c4578273ffffffffffffffffffffffffffffffffffffffff1684600101828154811061135d5761135c611a14565b5b9060005260206000200160000160009054906101000a900473ffffffffffffffffffffffffffffffffffffffff1673ffffffffffffffffffffffffffffffffffffffff1614156113b15760019150506113ca565b80806113bc90611b41565b915050611321565b50600090505b92915050565b60006114a2600160009054906101000a900473ffffffffffffffffffffffffffffffffffffffff1673ffffffffffffffffffffffffffffffffffffffff1663313ce5676040518163ffffffff1660e01b815260040160206040518083038186803b15801561143d57600080fd5b505afa158015611451573d6000803e3d6000fd5b505050506040513d601f19601f82011682018060405250810190611475919061212f565b600a611481919061228f565b600060049054906101000a900460ff1660ff166114bd90919063ffffffff16565b905090565b600081836114b591906122da565b905092915050565b600081836114cb919061230b565b905092915050565b600081836114e191906120c0565b905092915050565b6000604051905090565b600080fd5b600080fd5b6000819050919050565b611510816114fd565b811461151b57600080fd5b50565b60008135905061152d81611507565b92915050565b600060208284031215611549576115486114f3565b5b60006115578482850161151e565b91505092915050565b611569816114fd565b82525050565b600060ff82169050919050565b6115858161156f565b82525050565b7f4e487b7100000000000000000000000000000000000000000000000000000000600052602160045260246000fd5b600281106115cb576115ca61158b565b5b50565b60008190506115dc826115ba565b919050565b60006115ec826115ce565b9050919050565b6115fc816115e1565b82525050565b60006060820190506116176000830186611560565b611624602083018561157c565b61163160408301846115f3565b949350505050565b600073ffffffffffffffffffffffffffffffffffffffff82169050919050565b6000819050919050565b600061167e61167961167484611639565b611659565b611639565b9050919050565b600061169082611663565b9050919050565b60006116a282611685565b9050919050565b6116b281611697565b82525050565b60006020820190506116cd60008301846116a9565b92915050565b60006116de82611639565b9050919050565b6116ee816116d3565b81146116f957600080fd5b50565b60008135905061170b816116e5565b92915050565b600060208284031215611727576117266114f3565b5b6000611735848285016116fc565b91505092915050565b60006020820190506117536000830184611560565b92915050565b600081519050919050565b600082825260208201905092915050565b60005b83811015611793578082015181840152602081019050611778565b838111156117a2576000848401525b50505050565b6000601f19601f8301169050919050565b60006117c482611759565b6117ce8185611764565b93506117de818560208601611775565b6117e7816117a8565b840191505092915050565b6000602082019050818103600083015261180c81846117b9565b905092915050565b61181d8161156f565b811461182857600080fd5b50565b60008135905061183a81611814565b92915050565b600060208284031215611856576118556114f3565b5b60006118648482850161182b565b91505092915050565b7f6f6e6c79204465616c6572000000000000000000000000000000000000000000600082015250565b60006118a3600b83611764565b91506118ae8261186d565b602082019050919050565b600060208201905081810360008301526118d281611896565b9050919050565b6118e2816116d3565b82525050565b6000819050919050565b600061190d611908611903846118e8565b611659565b6114fd565b9050919050565b61191d816118f2565b82525050565b600060408201905061193860008301856118d9565b6119456020830184611914565b9392505050565b60008115159050919050565b6119618161194c565b811461196c57600080fd5b50565b60008151905061197e81611958565b92915050565b60006020828403121561199a576119996114f3565b5b60006119a88482850161196f565b91505092915050565b7f4e487b7100000000000000000000000000000000000000000000000000000000600052601160045260246000fd5b60006119eb826114fd565b91506119f6836114fd565b925082821015611a0957611a086119b1565b5b828203905092915050565b7f4e487b7100000000000000000000000000000000000000000000000000000000600052603260045260246000fd5b7f67616d6520686173207374617274656400000000000000000000000000000000600082015250565b6000611a79601083611764565b9150611a8482611a43565b602082019050919050565b60006020820190508181036000830152611aa881611a6c565b9050919050565b7f7365742063757272656e6379206f662067616d65206265666f7265206372656160008201527f74652067616d6500000000000000000000000000000000000000000000000000602082015250565b6000611b0b602783611764565b9150611b1682611aaf565b604082019050919050565b60006020820190508181036000830152611b3a81611afe565b9050919050565b6000611b4c826114fd565b91507fffffffffffffffffffffffffffffffffffffffffffffffffffffffffffffffff821415611b7f57611b7e6119b1565b5b600182019050919050565b7f67616d65206861736e2774207374617274656420796574000000000000000000600082015250565b6000611bc0601783611764565b9150611bcb82611b8a565b602082019050919050565b60006020820190508181036000830152611bef81611bb3565b9050919050565b600080fd5b600080fd5b7f4e487b7100000000000000000000000000000000000000000000000000000000600052604160045260246000fd5b611c38826117a8565b810181811067ffffffffffffffff82111715611c5757611c56611c00565b5b80604052505050565b6000611c6a6114e9565b9050611c768282611c2f565b919050565b600067ffffffffffffffff821115611c9657611c95611c00565b5b611c9f826117a8565b9050602081019050919050565b6000611cbf611cba84611c7b565b611c60565b905082815260208101848484011115611cdb57611cda611bfb565b5b611ce6848285611775565b509392505050565b600082601f830112611d0357611d02611bf6565b5b8151611d13848260208601611cac565b91505092915050565b600060208284031215611d3257611d316114f3565b5b600082015167ffffffffffffffff811115611d5057611d4f6114f8565b5b611d5c84828501611cee565b91505092915050565b7f4465616c65722063616e6e6f74206265206120706c6179657200000000000000600082015250565b6000611d9b601983611764565b9150611da682611d65565b602082019050919050565b60006020820190508181036000830152611dca81611d8e565b9050919050565b7f796f752062657400000000000000000000000000000000000000000000000000600082015250565b6000611e07600783611764565b9150611e1282611dd1565b602082019050919050565b60006020820190508181036000830152611e3681611dfa565b9050919050565b7f656e6f75676820706c6179657273000000000000000000000000000000000000600082015250565b6000611e73600e83611764565b9150611e7e82611e3d565b602082019050919050565b60006020820190508181036000830152611ea281611e66565b9050919050565b6000602082019050611ebe60008301846118d9565b92915050565b600081519050611ed381611507565b92915050565b600060208284031215611eef57611eee6114f3565b5b6000611efd84828501611ec4565b91505092915050565b7f6e6f7420656e6f756768206d6f6e657900000000000000000000000000000000600082015250565b6000611f3c601083611764565b9150611f4782611f06565b602082019050919050565b60006020820190508181036000830152611f6b81611f2f565b9050919050565b7f626574206e756d626572206d757374206265206265747765656e2066726f6d2060008201527f3020746f20393900000000000000000000000000000000000000000000000000602082015250565b6000611fce602783611764565b9150611fd982611f72565b604082019050919050565b60006020820190508181036000830152611ffd81611fc1565b9050919050565b600060608201905061201960008301866118d9565b61202660208301856118d9565b6120336040830184611560565b949350505050565b6000612046826114fd565b9150612051836114fd565b9250827fffffffffffffffffffffffffffffffffffffffffffffffffffffffffffffffff03821115612086576120856119b1565b5b828201905092915050565b7f4e487b7100000000000000000000000000000000000000000000000000000000600052601260045260246000fd5b60006120cb826114fd565b91506120d6836114fd565b9250826120e6576120e5612091565b5b828204905092915050565b600060408201905061210660008301856118d9565b6121136020830184611560565b9392505050565b60008151905061212981611814565b92915050565b600060208284031215612145576121446114f3565b5b60006121538482850161211a565b91505092915050565b60008160011c9050919050565b6000808291508390505b60018511156121b35780860481111561218f5761218e6119b1565b5b600185161561219e5780820291505b80810290506121ac8561215c565b9450612173565b94509492505050565b6000826121cc5760019050612288565b816121da5760009050612288565b81600181146121f057600281146121fa57612229565b6001915050612288565b60ff84111561220c5761220b6119b1565b5b8360020a915084821115612223576122226119b1565b5b50612288565b5060208310610133831016604e8410600b841016171561225e5782820a905083811115612259576122586119b1565b5b612288565b61226b8484846001612169565b92509050818404811115612282576122816119b1565b5b81810290505b9392505050565b600061229a826114fd565b91506122a58361156f565b92506122d27fffffffffffffffffffffffffffffffffffffffffffffffffffffffffffffffff84846121bc565b905092915050565b60006122e5826114fd565b91506122f0836114fd565b925082612300576122ff612091565b5b828206905092915050565b6000612316826114fd565b9150612321836114fd565b9250817fffffffffffffffffffffffffffffffffffffffffffffffffffffffffffffffff048311821515161561235a576123596119b1565b5b82820290509291505056fea26469706673582212201bf7a893af2e1fe1117ad5335aae44a124dce0ec7f560e1dbc3534d5295fa61d64736f6c63430008090033",
  "linkReferences": {},
  "deployedLinkReferences": {}
}